{
  "_format": "hh-sol-artifact-1",
  "contractName": "NFTMint",
  "sourceName": "contracts/NFTMint.sol",
  "abi": [
    {
      "inputs": [
        {
          "internalType": "string",
          "name": "baseURI",
          "type": "string"
        }
      ],
      "stateMutability": "nonpayable",
      "type": "constructor"
    },
    {
      "inputs": [
        {
          "internalType": "address",
          "name": "sender",
          "type": "address"
        },
        {
          "internalType": "uint256",
          "name": "tokenId",
          "type": "uint256"
        },
        {
          "internalType": "address",
          "name": "owner",
          "type": "address"
        }
      ],
      "name": "ERC721IncorrectOwner",
      "type": "error"
    },
    {
      "inputs": [
        {
          "internalType": "address",
          "name": "operator",
          "type": "address"
        },
        {
          "internalType": "uint256",
          "name": "tokenId",
          "type": "uint256"
        }
      ],
      "name": "ERC721InsufficientApproval",
      "type": "error"
    },
    {
      "inputs": [
        {
          "internalType": "address",
          "name": "approver",
          "type": "address"
        }
      ],
      "name": "ERC721InvalidApprover",
      "type": "error"
    },
    {
      "inputs": [
        {
          "internalType": "address",
          "name": "operator",
          "type": "address"
        }
      ],
      "name": "ERC721InvalidOperator",
      "type": "error"
    },
    {
      "inputs": [
        {
          "internalType": "address",
          "name": "owner",
          "type": "address"
        }
      ],
      "name": "ERC721InvalidOwner",
      "type": "error"
    },
    {
      "inputs": [
        {
          "internalType": "address",
          "name": "receiver",
          "type": "address"
        }
      ],
      "name": "ERC721InvalidReceiver",
      "type": "error"
    },
    {
      "inputs": [
        {
          "internalType": "address",
          "name": "sender",
          "type": "address"
        }
      ],
      "name": "ERC721InvalidSender",
      "type": "error"
    },
    {
      "inputs": [
        {
          "internalType": "uint256",
          "name": "tokenId",
          "type": "uint256"
        }
      ],
      "name": "ERC721NonexistentToken",
      "type": "error"
    },
    {
      "inputs": [
        {
          "internalType": "address",
          "name": "owner",
          "type": "address"
        }
      ],
      "name": "OwnableInvalidOwner",
      "type": "error"
    },
    {
      "inputs": [
        {
          "internalType": "address",
          "name": "account",
          "type": "address"
        }
      ],
      "name": "OwnableUnauthorizedAccount",
      "type": "error"
    },
    {
      "inputs": [],
      "name": "ReentrancyGuardReentrantCall",
      "type": "error"
    },
    {
      "anonymous": false,
      "inputs": [
        {
          "indexed": true,
          "internalType": "address",
          "name": "owner",
          "type": "address"
        },
        {
          "indexed": true,
          "internalType": "address",
          "name": "approved",
          "type": "address"
        },
        {
          "indexed": true,
          "internalType": "uint256",
          "name": "tokenId",
          "type": "uint256"
        }
      ],
      "name": "Approval",
      "type": "event"
    },
    {
      "anonymous": false,
      "inputs": [
        {
          "indexed": true,
          "internalType": "address",
          "name": "owner",
          "type": "address"
        },
        {
          "indexed": true,
          "internalType": "address",
          "name": "operator",
          "type": "address"
        },
        {
          "indexed": false,
          "internalType": "bool",
          "name": "approved",
          "type": "bool"
        }
      ],
      "name": "ApprovalForAll",
      "type": "event"
    },
    {
      "anonymous": false,
      "inputs": [
        {
          "indexed": false,
          "internalType": "uint256",
          "name": "newPrice",
          "type": "uint256"
        }
      ],
      "name": "MintPriceUpdated",
      "type": "event"
    },
    {
      "anonymous": false,
      "inputs": [
        {
          "indexed": true,
          "internalType": "address",
          "name": "to",
          "type": "address"
        },
        {
          "indexed": true,
          "internalType": "uint256",
          "name": "tokenId",
          "type": "uint256"
        }
      ],
      "name": "Minted",
      "type": "event"
    },
    {
      "anonymous": false,
      "inputs": [
        {
          "indexed": true,
          "internalType": "address",
          "name": "previousOwner",
          "type": "address"
        },
        {
          "indexed": true,
          "internalType": "address",
          "name": "newOwner",
          "type": "address"
        }
      ],
      "name": "OwnershipTransferred",
      "type": "event"
    },
    {
      "anonymous": false,
      "inputs": [
        {
          "indexed": true,
          "internalType": "address",
          "name": "from",
          "type": "address"
        },
        {
          "indexed": true,
          "internalType": "address",
          "name": "to",
          "type": "address"
        },
        {
          "indexed": true,
          "internalType": "uint256",
          "name": "tokenId",
          "type": "uint256"
        }
      ],
      "name": "Transfer",
      "type": "event"
    },
    {
      "anonymous": false,
      "inputs": [
        {
          "indexed": true,
          "internalType": "address",
          "name": "owner",
          "type": "address"
        },
        {
          "indexed": false,
          "internalType": "uint256",
          "name": "amount",
          "type": "uint256"
        }
      ],
      "name": "Withdrawn",
      "type": "event"
    },
    {
      "inputs": [],
      "name": "MAX_SUPPLY",
      "outputs": [
        {
          "internalType": "uint256",
          "name": "",
          "type": "uint256"
        }
      ],
      "stateMutability": "view",
      "type": "function"
    },
    {
      "inputs": [
        {
          "internalType": "address",
          "name": "to",
          "type": "address"
        },
        {
          "internalType": "uint256",
          "name": "tokenId",
          "type": "uint256"
        }
      ],
      "name": "approve",
      "outputs": [],
      "stateMutability": "nonpayable",
      "type": "function"
    },
    {
      "inputs": [
        {
          "internalType": "address",
          "name": "owner",
          "type": "address"
        }
      ],
      "name": "balanceOf",
      "outputs": [
        {
          "internalType": "uint256",
          "name": "",
          "type": "uint256"
        }
      ],
      "stateMutability": "view",
      "type": "function"
    },
    {
      "inputs": [
        {
          "internalType": "uint256",
          "name": "tokenId",
          "type": "uint256"
        }
      ],
      "name": "getApproved",
      "outputs": [
        {
          "internalType": "address",
          "name": "",
          "type": "address"
        }
      ],
      "stateMutability": "view",
      "type": "function"
    },
    {
      "inputs": [
        {
          "internalType": "address",
          "name": "owner",
          "type": "address"
        },
        {
          "internalType": "address",
          "name": "operator",
          "type": "address"
        }
      ],
      "name": "isApprovedForAll",
      "outputs": [
        {
          "internalType": "bool",
          "name": "",
          "type": "bool"
        }
      ],
      "stateMutability": "view",
      "type": "function"
    },
    {
      "inputs": [
        {
          "internalType": "address",
          "name": "to",
          "type": "address"
        }
      ],
      "name": "mint",
      "outputs": [
        {
          "internalType": "uint256",
          "name": "",
          "type": "uint256"
        }
      ],
      "stateMutability": "payable",
      "type": "function"
    },
    {
      "inputs": [],
      "name": "mintPrice",
      "outputs": [
        {
          "internalType": "uint256",
          "name": "",
          "type": "uint256"
        }
      ],
      "stateMutability": "view",
      "type": "function"
    },
    {
      "inputs": [],
      "name": "name",
      "outputs": [
        {
          "internalType": "string",
          "name": "",
          "type": "string"
        }
      ],
      "stateMutability": "view",
      "type": "function"
    },
    {
      "inputs": [],
      "name": "owner",
      "outputs": [
        {
          "internalType": "address",
          "name": "",
          "type": "address"
        }
      ],
      "stateMutability": "view",
      "type": "function"
    },
    {
      "inputs": [
        {
          "internalType": "uint256",
          "name": "tokenId",
          "type": "uint256"
        }
      ],
      "name": "ownerOf",
      "outputs": [
        {
          "internalType": "address",
          "name": "",
          "type": "address"
        }
      ],
      "stateMutability": "view",
      "type": "function"
    },
    {
      "inputs": [],
      "name": "renounceOwnership",
      "outputs": [],
      "stateMutability": "nonpayable",
      "type": "function"
    },
    {
      "inputs": [
        {
          "internalType": "address",
          "name": "from",
          "type": "address"
        },
        {
          "internalType": "address",
          "name": "to",
          "type": "address"
        },
        {
          "internalType": "uint256",
          "name": "tokenId",
          "type": "uint256"
        }
      ],
      "name": "safeTransferFrom",
      "outputs": [],
      "stateMutability": "nonpayable",
      "type": "function"
    },
    {
      "inputs": [
        {
          "internalType": "address",
          "name": "from",
          "type": "address"
        },
        {
          "internalType": "address",
          "name": "to",
          "type": "address"
        },
        {
          "internalType": "uint256",
          "name": "tokenId",
          "type": "uint256"
        },
        {
          "internalType": "bytes",
          "name": "data",
          "type": "bytes"
        }
      ],
      "name": "safeTransferFrom",
      "outputs": [],
      "stateMutability": "nonpayable",
      "type": "function"
    },
    {
      "inputs": [
        {
          "internalType": "address",
          "name": "operator",
          "type": "address"
        },
        {
          "internalType": "bool",
          "name": "approved",
          "type": "bool"
        }
      ],
      "name": "setApprovalForAll",
      "outputs": [],
      "stateMutability": "nonpayable",
      "type": "function"
    },
    {
      "inputs": [
        {
          "internalType": "string",
          "name": "baseURI",
          "type": "string"
        }
      ],
      "name": "setBaseURI",
      "outputs": [],
      "stateMutability": "nonpayable",
      "type": "function"
    },
    {
      "inputs": [
        {
          "internalType": "uint256",
          "name": "newPrice",
          "type": "uint256"
        }
      ],
      "name": "setMintPrice",
      "outputs": [],
      "stateMutability": "nonpayable",
      "type": "function"
    },
    {
      "inputs": [
        {
          "internalType": "bytes4",
          "name": "interfaceId",
          "type": "bytes4"
        }
      ],
      "name": "supportsInterface",
      "outputs": [
        {
          "internalType": "bool",
          "name": "",
          "type": "bool"
        }
      ],
      "stateMutability": "view",
      "type": "function"
    },
    {
      "inputs": [],
      "name": "symbol",
      "outputs": [
        {
          "internalType": "string",
          "name": "",
          "type": "string"
        }
      ],
      "stateMutability": "view",
      "type": "function"
    },
    {
      "inputs": [
        {
          "internalType": "uint256",
          "name": "tokenId",
          "type": "uint256"
        }
      ],
      "name": "tokenURI",
      "outputs": [
        {
          "internalType": "string",
          "name": "",
          "type": "string"
        }
      ],
      "stateMutability": "view",
      "type": "function"
    },
    {
      "inputs": [],
      "name": "totalSupply",
      "outputs": [
        {
          "internalType": "uint256",
          "name": "",
          "type": "uint256"
        }
      ],
      "stateMutability": "view",
      "type": "function"
    },
    {
      "inputs": [
        {
          "internalType": "address",
          "name": "from",
          "type": "address"
        },
        {
          "internalType": "address",
          "name": "to",
          "type": "address"
        },
        {
          "internalType": "uint256",
          "name": "tokenId",
          "type": "uint256"
        }
      ],
      "name": "transferFrom",
      "outputs": [],
      "stateMutability": "nonpayable",
      "type": "function"
    },
    {
      "inputs": [
        {
          "internalType": "address",
          "name": "newOwner",
          "type": "address"
        }
      ],
      "name": "transferOwnership",
      "outputs": [],
      "stateMutability": "nonpayable",
      "type": "function"
    },
    {
      "inputs": [],
      "name": "withdraw",
      "outputs": [],
      "stateMutability": "nonpayable",
      "type": "function"
    }
  ],
  "bytecode": "0x6080604052670de0b6b3a764000060085534801561001b575f5ffd5b50604051613325380380613325833981810160405281019061003d91906103c7565b336040518060400160405280600581526020017f4d794e46540000000000000000000000000000000000000000000000000000008152506040518060400160405280600481526020017f4d4e465400000000000000000000000000000000000000000000000000000000815250815f90816100b8919061061e565b5080600190816100c8919061061e565b5050505f73ffffffffffffffffffffffffffffffffffffffff168173ffffffffffffffffffffffffffffffffffffffff160361013b575f6040517f1e4fbdf7000000000000000000000000000000000000000000000000000000008152600401610132919061072c565b60405180910390fd5b61014a8161018560201b60201c565b50600161016961015e61024860201b60201c565b61027160201b60201c565b5f0181905550806009908161017e919061061e565b5050610745565b5f60065f9054906101000a900473ffffffffffffffffffffffffffffffffffffffff1690508160065f6101000a81548173ffffffffffffffffffffffffffffffffffffffff021916908373ffffffffffffffffffffffffffffffffffffffff1602179055508173ffffffffffffffffffffffffffffffffffffffff168173ffffffffffffffffffffffffffffffffffffffff167f8be0079c531659141344cd1fd0a4f28419497f9722a3daafe3b4186f6b6457e060405160405180910390a35050565b5f7f9b779b17422d0df92223018b32b4d1fa46e071723d6817e2486d003becc55f005f1b905090565b5f819050919050565b5f604051905090565b5f5ffd5b5f5ffd5b5f5ffd5b5f5ffd5b5f601f19601f8301169050919050565b7f4e487b71000000000000000000000000000000000000000000000000000000005f52604160045260245ffd5b6102d982610293565b810181811067ffffffffffffffff821117156102f8576102f76102a3565b5b80604052505050565b5f61030a61027a565b905061031682826102d0565b919050565b5f67ffffffffffffffff821115610335576103346102a3565b5b61033e82610293565b9050602081019050919050565b8281835e5f83830152505050565b5f61036b6103668461031b565b610301565b9050828152602081018484840111156103875761038661028f565b5b61039284828561034b565b509392505050565b5f82601f8301126103ae576103ad61028b565b5b81516103be848260208601610359565b91505092915050565b5f602082840312156103dc576103db610283565b5b5f82015167ffffffffffffffff8111156103f9576103f8610287565b5b6104058482850161039a565b91505092915050565b5f81519050919050565b7f4e487b71000000000000000000000000000000000000000000000000000000005f52602260045260245ffd5b5f600282049050600182168061045c57607f821691505b60208210810361046f5761046e610418565b5b50919050565b5f819050815f5260205f209050919050565b5f6020601f8301049050919050565b5f82821b905092915050565b5f600883026104d17fffffffffffffffffffffffffffffffffffffffffffffffffffffffffffffffff82610496565b6104db8683610496565b95508019841693508086168417925050509392505050565b5f819050919050565b5f819050919050565b5f61051f61051a610515846104f3565b6104fc565b6104f3565b9050919050565b5f819050919050565b61053883610505565b61054c61054482610526565b8484546104a2565b825550505050565b5f5f905090565b610563610554565b61056e81848461052f565b505050565b5b81811015610591576105865f8261055b565b600181019050610574565b5050565b601f8211156105d6576105a781610475565b6105b084610487565b810160208510156105bf578190505b6105d36105cb85610487565b830182610573565b50505b505050565b5f82821c905092915050565b5f6105f65f19846008026105db565b1980831691505092915050565b5f61060e83836105e7565b9150826002028217905092915050565b6106278261040e565b67ffffffffffffffff8111156106405761063f6102a3565b5b61064a8254610445565b610655828285610595565b5f60209050601f831160018114610686575f8415610674578287015190505b61067e8582610603565b8655506106e5565b601f19841661069486610475565b5f5b828110156106bb57848901518255600182019150602085019450602081019050610696565b868310156106d857848901516106d4601f8916826105e7565b8355505b6001600288020188555050505b505050505050565b5f73ffffffffffffffffffffffffffffffffffffffff82169050919050565b5f610716826106ed565b9050919050565b6107268161070c565b82525050565b5f60208201905061073f5f83018461071d565b92915050565b612bd3806107525f395ff3fe60806040526004361061013f575f3560e01c80636817c76c116100b5578063a22cb4651161006e578063a22cb4651461042b578063b88d4fde14610453578063c87b56dd1461047b578063e985e9c5146104b7578063f2fde38b146104f3578063f4a0a5281461051b5761013f565b80636817c76c1461032b5780636a6278421461035557806370a0823114610385578063715018a6146103c15780638da5cb5b146103d757806395d89b41146104015761013f565b806323b872dd1161010757806323b872dd1461023757806332cb6b0c1461025f5780633ccfd60b1461028957806342842e0e1461029f57806355f804b3146102c75780636352211e146102ef5761013f565b806301ffc9a71461014357806306fdde031461017f578063081812fc146101a9578063095ea7b3146101e557806318160ddd1461020d575b5f5ffd5b34801561014e575f5ffd5b5061016960048036038101906101649190611ed5565b610543565b6040516101769190611f1a565b60405180910390f35b34801561018a575f5ffd5b50610193610624565b6040516101a09190611fa3565b60405180910390f35b3480156101b4575f5ffd5b506101cf60048036038101906101ca9190611ff6565b6106b3565b6040516101dc9190612060565b60405180910390f35b3480156101f0575f5ffd5b5061020b600480360381019061020691906120a3565b6106ce565b005b348015610218575f5ffd5b506102216106e4565b60405161022e91906120f0565b60405180910390f35b348015610242575f5ffd5b5061025d60048036038101906102589190612109565b6106ea565b005b34801561026a575f5ffd5b506102736107e9565b60405161028091906120f0565b60405180910390f35b348015610294575f5ffd5b5061029d6107ee565b005b3480156102aa575f5ffd5b506102c560048036038101906102c09190612109565b610954565b005b3480156102d2575f5ffd5b506102ed60048036038101906102e89190612285565b610973565b005b3480156102fa575f5ffd5b5061031560048036038101906103109190611ff6565b61098e565b6040516103229190612060565b60405180910390f35b348015610336575f5ffd5b5061033f61099f565b60405161034c91906120f0565b60405180910390f35b61036f600480360381019061036a91906122cc565b6109a5565b60405161037c91906120f0565b60405180910390f35b348015610390575f5ffd5b506103ab60048036038101906103a691906122cc565b610ab3565b6040516103b891906120f0565b60405180910390f35b3480156103cc575f5ffd5b506103d5610b69565b005b3480156103e2575f5ffd5b506103eb610b7c565b6040516103f89190612060565b60405180910390f35b34801561040c575f5ffd5b50610415610ba4565b6040516104229190611fa3565b60405180910390f35b348015610436575f5ffd5b50610451600480360381019061044c9190612321565b610c34565b005b34801561045e575f5ffd5b50610479600480360381019061047491906123fd565b610c4a565b005b348015610486575f5ffd5b506104a1600480360381019061049c9190611ff6565b610c6f565b6040516104ae9190611fa3565b60405180910390f35b3480156104c2575f5ffd5b506104dd60048036038101906104d8919061247d565b610cd5565b6040516104ea9190611f1a565b60405180910390f35b3480156104fe575f5ffd5b50610519600480360381019061051491906122cc565b610d63565b005b348015610526575f5ffd5b50610541600480360381019061053c9190611ff6565b610de7565b005b5f7f80ac58cd000000000000000000000000000000000000000000000000000000007bffffffffffffffffffffffffffffffffffffffffffffffffffffffff1916827bffffffffffffffffffffffffffffffffffffffffffffffffffffffff1916148061060d57507f5b5e139f000000000000000000000000000000000000000000000000000000007bffffffffffffffffffffffffffffffffffffffffffffffffffffffff1916827bffffffffffffffffffffffffffffffffffffffffffffffffffffffff1916145b8061061d575061061c82610e30565b5b9050919050565b60605f8054610632906124e8565b80601f016020809104026020016040519081016040528092919081815260200182805461065e906124e8565b80156106a95780601f10610680576101008083540402835291602001916106a9565b820191905f5260205f20905b81548152906001019060200180831161068c57829003601f168201915b5050505050905090565b5f6106bd82610e99565b506106c782610f1f565b9050919050565b6106e082826106db610f58565b610f5f565b5050565b60075481565b5f73ffffffffffffffffffffffffffffffffffffffff168273ffffffffffffffffffffffffffffffffffffffff160361075a575f6040517f64a0ae920000000000000000000000000000000000000000000000000000000081526004016107519190612060565b60405180910390fd5b5f61076d8383610768610f58565b610f71565b90508373ffffffffffffffffffffffffffffffffffffffff168173ffffffffffffffffffffffffffffffffffffffff16146107e3578382826040517f64283d7b0000000000000000000000000000000000000000000000000000000081526004016107da93929190612518565b60405180910390fd5b50505050565b600581565b6107f661117c565b6107fe611203565b5f4790505f8111610844576040517f08c379a000000000000000000000000000000000000000000000000000000000815260040161083b90612597565b60405180910390fd5b5f61084d610b7c565b73ffffffffffffffffffffffffffffffffffffffff1682604051610870906125e2565b5f6040518083038185875af1925050503d805f81146108aa576040519150601f19603f3d011682016040523d82523d5f602084013e6108af565b606091505b50509050806108f3576040517f08c379a00000000000000000000000000000000000000000000000000000000081526004016108ea90612640565b60405180910390fd5b6108fb610b7c565b73ffffffffffffffffffffffffffffffffffffffff167f7084f5476618d8e60b11ef0d7d3f06914655adb8793e28ff7f018d4c76d505d58360405161094091906120f0565b60405180910390a25050610952611225565b565b61096e83838360405180602001604052805f815250610c4a565b505050565b61097b61117c565b806009908161098a91906127fe565b5050565b5f61099882610e99565b9050919050565b60085481565b5f6109ae611203565b6005600754106109f3576040517f08c379a00000000000000000000000000000000000000000000000000000000081526004016109ea90612917565b60405180910390fd5b6008543414610a37576040517f08c379a0000000000000000000000000000000000000000000000000000000008152600401610a2e9061297f565b60405180910390fd5b60075f815480929190610a49906129ca565b91905055505f6007549050610a5e838261123f565b808373ffffffffffffffffffffffffffffffffffffffff167f30385c845b448a36257a6a1716e6ad2e1bc2cbe333cde1e69fe849ad6511adfe60405160405180910390a380915050610aae611225565b919050565b5f5f73ffffffffffffffffffffffffffffffffffffffff168273ffffffffffffffffffffffffffffffffffffffff1603610b24575f6040517f89c62b64000000000000000000000000000000000000000000000000000000008152600401610b1b9190612060565b60405180910390fd5b60035f8373ffffffffffffffffffffffffffffffffffffffff1673ffffffffffffffffffffffffffffffffffffffff1681526020019081526020015f20549050919050565b610b7161117c565b610b7a5f61125c565b565b5f60065f9054906101000a900473ffffffffffffffffffffffffffffffffffffffff16905090565b606060018054610bb3906124e8565b80601f0160208091040260200160405190810160405280929190818152602001828054610bdf906124e8565b8015610c2a5780601f10610c0157610100808354040283529160200191610c2a565b820191905f5260205f20905b815481529060010190602001808311610c0d57829003601f168201915b5050505050905090565b610c46610c3f610f58565b838361131f565b5050565b610c558484846106ea565b610c69610c60610f58565b858585856114f8565b50505050565b6060610c7a82610e99565b505f610c846116a4565b90505f815111610ca25760405180602001604052805f815250610ccd565b80610cac84611734565b604051602001610cbd929190612a4b565b6040516020818303038152906040525b915050919050565b5f60055f8473ffffffffffffffffffffffffffffffffffffffff1673ffffffffffffffffffffffffffffffffffffffff1681526020019081526020015f205f8373ffffffffffffffffffffffffffffffffffffffff1673ffffffffffffffffffffffffffffffffffffffff1681526020019081526020015f205f9054906101000a900460ff16905092915050565b610d6b61117c565b5f73ffffffffffffffffffffffffffffffffffffffff168173ffffffffffffffffffffffffffffffffffffffff1603610ddb575f6040517f1e4fbdf7000000000000000000000000000000000000000000000000000000008152600401610dd29190612060565b60405180910390fd5b610de48161125c565b50565b610def61117c565b806008819055507f525b762709cc2a983aec5ccdfd807a061f993c91090b5bcd7da92ca254976aaa81604051610e2591906120f0565b60405180910390a150565b5f7f01ffc9a7000000000000000000000000000000000000000000000000000000007bffffffffffffffffffffffffffffffffffffffffffffffffffffffff1916827bffffffffffffffffffffffffffffffffffffffffffffffffffffffff1916149050919050565b5f5f610ea4836117fe565b90505f73ffffffffffffffffffffffffffffffffffffffff168173ffffffffffffffffffffffffffffffffffffffff1603610f1657826040517f7e273289000000000000000000000000000000000000000000000000000000008152600401610f0d91906120f0565b60405180910390fd5b80915050919050565b5f60045f8381526020019081526020015f205f9054906101000a900473ffffffffffffffffffffffffffffffffffffffff169050919050565b5f33905090565b610f6c8383836001611837565b505050565b5f5f610f7c846117fe565b90505f73ffffffffffffffffffffffffffffffffffffffff168373ffffffffffffffffffffffffffffffffffffffff1614610fbd57610fbc8184866119f6565b5b5f73ffffffffffffffffffffffffffffffffffffffff168173ffffffffffffffffffffffffffffffffffffffff161461104857610ffc5f855f5f611837565b600160035f8373ffffffffffffffffffffffffffffffffffffffff1673ffffffffffffffffffffffffffffffffffffffff1681526020019081526020015f205f82825403925050819055505b5f73ffffffffffffffffffffffffffffffffffffffff168573ffffffffffffffffffffffffffffffffffffffff16146110c757600160035f8773ffffffffffffffffffffffffffffffffffffffff1673ffffffffffffffffffffffffffffffffffffffff1681526020019081526020015f205f82825401925050819055505b8460025f8681526020019081526020015f205f6101000a81548173ffffffffffffffffffffffffffffffffffffffff021916908373ffffffffffffffffffffffffffffffffffffffff160217905550838573ffffffffffffffffffffffffffffffffffffffff168273ffffffffffffffffffffffffffffffffffffffff167fddf252ad1be2c89b69c2b068fc378daa952ba7f163c4a11628f55a4df523b3ef60405160405180910390a4809150509392505050565b611184610f58565b73ffffffffffffffffffffffffffffffffffffffff166111a2610b7c565b73ffffffffffffffffffffffffffffffffffffffff1614611201576111c5610f58565b6040517f118cdaa70000000000000000000000000000000000000000000000000000000081526004016111f89190612060565b60405180910390fd5b565b61120b611ab9565b600261121d611218611afa565b611b23565b5f0181905550565b6001611237611232611afa565b611b23565b5f0181905550565b611258828260405180602001604052805f815250611b2c565b5050565b5f60065f9054906101000a900473ffffffffffffffffffffffffffffffffffffffff1690508160065f6101000a81548173ffffffffffffffffffffffffffffffffffffffff021916908373ffffffffffffffffffffffffffffffffffffffff1602179055508173ffffffffffffffffffffffffffffffffffffffff168173ffffffffffffffffffffffffffffffffffffffff167f8be0079c531659141344cd1fd0a4f28419497f9722a3daafe3b4186f6b6457e060405160405180910390a35050565b5f73ffffffffffffffffffffffffffffffffffffffff168373ffffffffffffffffffffffffffffffffffffffff160361138f575f6040517fa9fbf51f0000000000000000000000000000000000000000000000000000000081526004016113869190612060565b60405180910390fd5b5f73ffffffffffffffffffffffffffffffffffffffff168273ffffffffffffffffffffffffffffffffffffffff16036113ff57816040517f5b08ba180000000000000000000000000000000000000000000000000000000081526004016113f69190612060565b60405180910390fd5b8060055f8573ffffffffffffffffffffffffffffffffffffffff1673ffffffffffffffffffffffffffffffffffffffff1681526020019081526020015f205f8473ffffffffffffffffffffffffffffffffffffffff1673ffffffffffffffffffffffffffffffffffffffff1681526020019081526020015f205f6101000a81548160ff0219169083151502179055508173ffffffffffffffffffffffffffffffffffffffff168373ffffffffffffffffffffffffffffffffffffffff167f17307eab39ab6107e8899845ad3d59bd9653f200f220920489ca2b5937696c31836040516114eb9190611f1a565b60405180910390a3505050565b5f8373ffffffffffffffffffffffffffffffffffffffff163b111561169d578273ffffffffffffffffffffffffffffffffffffffff1663150b7a02868685856040518563ffffffff1660e01b81526004016115569493929190612ac0565b6020604051808303815f875af192505050801561159157506040513d601f19601f8201168201806040525081019061158e9190612b1e565b60015b611612573d805f81146115bf576040519150601f19603f3d011682016040523d82523d5f602084013e6115c4565b606091505b505f81510361160a57836040517f64a0ae920000000000000000000000000000000000000000000000000000000081526004016116019190612060565b60405180910390fd5b805160208201fd5b63150b7a0260e01b7bffffffffffffffffffffffffffffffffffffffffffffffffffffffff1916817bffffffffffffffffffffffffffffffffffffffffffffffffffffffff19161461169b57836040517f64a0ae920000000000000000000000000000000000000000000000000000000081526004016116929190612060565b60405180910390fd5b505b5050505050565b6060600980546116b3906124e8565b80601f01602080910402602001604051908101604052809291908181526020018280546116df906124e8565b801561172a5780601f106117015761010080835404028352916020019161172a565b820191905f5260205f20905b81548152906001019060200180831161170d57829003601f168201915b5050505050905090565b60605f600161174284611b4f565b0190505f8167ffffffffffffffff8111156117605761175f612161565b5b6040519080825280601f01601f1916602001820160405280156117925781602001600182028036833780820191505090505b5090505f82602083010190505b6001156117f3578080600190039150507f3031323334353637383961626364656600000000000000000000000000000000600a86061a8153600a85816117e8576117e7612b49565b5b0494505f850361179f575b819350505050919050565b5f60025f8381526020019081526020015f205f9054906101000a900473ffffffffffffffffffffffffffffffffffffffff169050919050565b808061186f57505f73ffffffffffffffffffffffffffffffffffffffff168273ffffffffffffffffffffffffffffffffffffffff1614155b156119a1575f61187e84610e99565b90505f73ffffffffffffffffffffffffffffffffffffffff168373ffffffffffffffffffffffffffffffffffffffff16141580156118e857508273ffffffffffffffffffffffffffffffffffffffff168173ffffffffffffffffffffffffffffffffffffffff1614155b80156118fb57506118f98184610cd5565b155b1561193d57826040517fa9fbf51f0000000000000000000000000000000000000000000000000000000081526004016119349190612060565b60405180910390fd5b811561199f57838573ffffffffffffffffffffffffffffffffffffffff168273ffffffffffffffffffffffffffffffffffffffff167f8c5be1e5ebec7d5bd14f71427d1e84f3dd0314c0f7b2291e5b200ac8c7c3b92560405160405180910390a45b505b8360045f8581526020019081526020015f205f6101000a81548173ffffffffffffffffffffffffffffffffffffffff021916908373ffffffffffffffffffffffffffffffffffffffff16021790555050505050565b611a01838383611ca0565b611ab4575f73ffffffffffffffffffffffffffffffffffffffff168373ffffffffffffffffffffffffffffffffffffffff1603611a7557806040517f7e273289000000000000000000000000000000000000000000000000000000008152600401611a6c91906120f0565b60405180910390fd5b81816040517f177e802f000000000000000000000000000000000000000000000000000000008152600401611aab929190612b76565b60405180910390fd5b505050565b611ac1611d60565b15611af8576040517f3ee5aeb500000000000000000000000000000000000000000000000000000000815260040160405180910390fd5b565b5f7f9b779b17422d0df92223018b32b4d1fa46e071723d6817e2486d003becc55f005f1b905090565b5f819050919050565b611b368383611d7c565b611b4a611b41610f58565b5f8585856114f8565b505050565b5f5f5f90507a184f03e93ff9f4daa797ed6e38ed64bf6a1f0100000000000000008310611bab577a184f03e93ff9f4daa797ed6e38ed64bf6a1f0100000000000000008381611ba157611ba0612b49565b5b0492506040810190505b6d04ee2d6d415b85acef81000000008310611be8576d04ee2d6d415b85acef81000000008381611bde57611bdd612b49565b5b0492506020810190505b662386f26fc100008310611c1757662386f26fc100008381611c0d57611c0c612b49565b5b0492506010810190505b6305f5e1008310611c40576305f5e1008381611c3657611c35612b49565b5b0492506008810190505b6127108310611c65576127108381611c5b57611c5a612b49565b5b0492506004810190505b60648310611c885760648381611c7e57611c7d612b49565b5b0492506002810190505b600a8310611c97576001810190505b80915050919050565b5f5f73ffffffffffffffffffffffffffffffffffffffff168373ffffffffffffffffffffffffffffffffffffffff1614158015611d5757508273ffffffffffffffffffffffffffffffffffffffff168473ffffffffffffffffffffffffffffffffffffffff161480611d185750611d178484610cd5565b5b80611d5657508273ffffffffffffffffffffffffffffffffffffffff16611d3e83610f1f565b73ffffffffffffffffffffffffffffffffffffffff16145b5b90509392505050565b5f6002611d73611d6e611afa565b611b23565b5f015414905090565b5f73ffffffffffffffffffffffffffffffffffffffff168273ffffffffffffffffffffffffffffffffffffffff1603611dec575f6040517f64a0ae92000000000000000000000000000000000000000000000000000000008152600401611de39190612060565b60405180910390fd5b5f611df883835f610f71565b90505f73ffffffffffffffffffffffffffffffffffffffff168173ffffffffffffffffffffffffffffffffffffffff1614611e6a575f6040517f73c6ac6e000000000000000000000000000000000000000000000000000000008152600401611e619190612060565b60405180910390fd5b505050565b5f604051905090565b5f5ffd5b5f5ffd5b5f7fffffffff0000000000000000000000000000000000000000000000000000000082169050919050565b611eb481611e80565b8114611ebe575f5ffd5b50565b5f81359050611ecf81611eab565b92915050565b5f60208284031215611eea57611ee9611e78565b5b5f611ef784828501611ec1565b91505092915050565b5f8115159050919050565b611f1481611f00565b82525050565b5f602082019050611f2d5f830184611f0b565b92915050565b5f81519050919050565b5f82825260208201905092915050565b8281835e5f83830152505050565b5f601f19601f8301169050919050565b5f611f7582611f33565b611f7f8185611f3d565b9350611f8f818560208601611f4d565b611f9881611f5b565b840191505092915050565b5f6020820190508181035f830152611fbb8184611f6b565b905092915050565b5f819050919050565b611fd581611fc3565b8114611fdf575f5ffd5b50565b5f81359050611ff081611fcc565b92915050565b5f6020828403121561200b5761200a611e78565b5b5f61201884828501611fe2565b91505092915050565b5f73ffffffffffffffffffffffffffffffffffffffff82169050919050565b5f61204a82612021565b9050919050565b61205a81612040565b82525050565b5f6020820190506120735f830184612051565b92915050565b61208281612040565b811461208c575f5ffd5b50565b5f8135905061209d81612079565b92915050565b5f5f604083850312156120b9576120b8611e78565b5b5f6120c68582860161208f565b92505060206120d785828601611fe2565b9150509250929050565b6120ea81611fc3565b82525050565b5f6020820190506121035f8301846120e1565b92915050565b5f5f5f606084860312156121205761211f611e78565b5b5f61212d8682870161208f565b935050602061213e8682870161208f565b925050604061214f86828701611fe2565b9150509250925092565b5f5ffd5b5f5ffd5b7f4e487b71000000000000000000000000000000000000000000000000000000005f52604160045260245ffd5b61219782611f5b565b810181811067ffffffffffffffff821117156121b6576121b5612161565b5b80604052505050565b5f6121c8611e6f565b90506121d4828261218e565b919050565b5f67ffffffffffffffff8211156121f3576121f2612161565b5b6121fc82611f5b565b9050602081019050919050565b828183375f83830152505050565b5f612229612224846121d9565b6121bf565b9050828152602081018484840111156122455761224461215d565b5b612250848285612209565b509392505050565b5f82601f83011261226c5761226b612159565b5b813561227c848260208601612217565b91505092915050565b5f6020828403121561229a57612299611e78565b5b5f82013567ffffffffffffffff8111156122b7576122b6611e7c565b5b6122c384828501612258565b91505092915050565b5f602082840312156122e1576122e0611e78565b5b5f6122ee8482850161208f565b91505092915050565b61230081611f00565b811461230a575f5ffd5b50565b5f8135905061231b816122f7565b92915050565b5f5f6040838503121561233757612336611e78565b5b5f6123448582860161208f565b92505060206123558582860161230d565b9150509250929050565b5f67ffffffffffffffff82111561237957612378612161565b5b61238282611f5b565b9050602081019050919050565b5f6123a161239c8461235f565b6121bf565b9050828152602081018484840111156123bd576123bc61215d565b5b6123c8848285612209565b509392505050565b5f82601f8301126123e4576123e3612159565b5b81356123f484826020860161238f565b91505092915050565b5f5f5f5f6080858703121561241557612414611e78565b5b5f6124228782880161208f565b94505060206124338782880161208f565b935050604061244487828801611fe2565b925050606085013567ffffffffffffffff81111561246557612464611e7c565b5b612471878288016123d0565b91505092959194509250565b5f5f6040838503121561249357612492611e78565b5b5f6124a08582860161208f565b92505060206124b18582860161208f565b9150509250929050565b7f4e487b71000000000000000000000000000000000000000000000000000000005f52602260045260245ffd5b5f60028204905060018216806124ff57607f821691505b602082108103612512576125116124bb565b5b50919050565b5f60608201905061252b5f830186612051565b61253860208301856120e1565b6125456040830184612051565b949350505050565b7f4e6f7468696e6720746f207769746864726177000000000000000000000000005f82015250565b5f612581601383611f3d565b915061258c8261254d565b602082019050919050565b5f6020820190508181035f8301526125ae81612575565b9050919050565b5f81905092915050565b50565b5f6125cd5f836125b5565b91506125d8826125bf565b5f82019050919050565b5f6125ec826125c2565b9150819050919050565b7f5769746864726177616c206661696c65640000000000000000000000000000005f82015250565b5f61262a601183611f3d565b9150612635826125f6565b602082019050919050565b5f6020820190508181035f8301526126578161261e565b9050919050565b5f819050815f5260205f209050919050565b5f6020601f8301049050919050565b5f82821b905092915050565b5f600883026126ba7fffffffffffffffffffffffffffffffffffffffffffffffffffffffffffffffff8261267f565b6126c4868361267f565b95508019841693508086168417925050509392505050565b5f819050919050565b5f6126ff6126fa6126f584611fc3565b6126dc565b611fc3565b9050919050565b5f819050919050565b612718836126e5565b61272c61272482612706565b84845461268b565b825550505050565b5f5f905090565b612743612734565b61274e81848461270f565b505050565b5b81811015612771576127665f8261273b565b600181019050612754565b5050565b601f8211156127b6576127878161265e565b61279084612670565b8101602085101561279f578190505b6127b36127ab85612670565b830182612753565b50505b505050565b5f82821c905092915050565b5f6127d65f19846008026127bb565b1980831691505092915050565b5f6127ee83836127c7565b9150826002028217905092915050565b61280782611f33565b67ffffffffffffffff8111156128205761281f612161565b5b61282a82546124e8565b612835828285612775565b5f60209050601f831160018114612866575f8415612854578287015190505b61285e85826127e3565b8655506128c5565b601f1984166128748661265e565b5f5b8281101561289b57848901518255600182019150602085019450602081019050612876565b868310156128b857848901516128b4601f8916826127c7565b8355505b6001600288020188555050505b505050505050565b7f4d617820737570706c79207265616368656400000000000000000000000000005f82015250565b5f612901601283611f3d565b915061290c826128cd565b602082019050919050565b5f6020820190508181035f83015261292e816128f5565b9050919050565b7f496e636f7272656374207061796d656e7420616d6f756e7400000000000000005f82015250565b5f612969601883611f3d565b915061297482612935565b602082019050919050565b5f6020820190508181035f8301526129968161295d565b9050919050565b7f4e487b71000000000000000000000000000000000000000000000000000000005f52601160045260245ffd5b5f6129d482611fc3565b91507fffffffffffffffffffffffffffffffffffffffffffffffffffffffffffffffff8203612a0657612a0561299d565b5b600182019050919050565b5f81905092915050565b5f612a2582611f33565b612a2f8185612a11565b9350612a3f818560208601611f4d565b80840191505092915050565b5f612a568285612a1b565b9150612a628284612a1b565b91508190509392505050565b5f81519050919050565b5f82825260208201905092915050565b5f612a9282612a6e565b612a9c8185612a78565b9350612aac818560208601611f4d565b612ab581611f5b565b840191505092915050565b5f608082019050612ad35f830187612051565b612ae06020830186612051565b612aed60408301856120e1565b8181036060830152612aff8184612a88565b905095945050505050565b5f81519050612b1881611eab565b92915050565b5f60208284031215612b3357612b32611e78565b5b5f612b4084828501612b0a565b91505092915050565b7f4e487b71000000000000000000000000000000000000000000000000000000005f52601260045260245ffd5b5f604082019050612b895f830185612051565b612b9660208301846120e1565b939250505056fea26469706673582212208d6386a293dbd7633cf9d587e653ba2951094bd7b1ca092fec756436a9f1836a64736f6c634300081c0033",
  "linkReferences": {},
  "deployedLinkReferences": {}
}